{
  "_format": "hh-sol-artifact-1",
  "contractName": "MyEpicNFT",
  "sourceName": "contracts/MyEpicNFT.sol",
  "abi": [
    {
      "inputs": [],
      "stateMutability": "nonpayable",
      "type": "constructor"
    },
    {
      "anonymous": false,
      "inputs": [
        {
          "indexed": true,
          "internalType": "address",
          "name": "owner",
          "type": "address"
        },
        {
          "indexed": true,
          "internalType": "address",
          "name": "approved",
          "type": "address"
        },
        {
          "indexed": true,
          "internalType": "uint256",
          "name": "tokenId",
          "type": "uint256"
        }
      ],
      "name": "Approval",
      "type": "event"
    },
    {
      "anonymous": false,
      "inputs": [
        {
          "indexed": true,
          "internalType": "address",
          "name": "owner",
          "type": "address"
        },
        {
          "indexed": true,
          "internalType": "address",
          "name": "operator",
          "type": "address"
        },
        {
          "indexed": false,
          "internalType": "bool",
          "name": "approved",
          "type": "bool"
        }
      ],
      "name": "ApprovalForAll",
      "type": "event"
    },
    {
      "anonymous": false,
      "inputs": [
        {
          "indexed": false,
          "internalType": "address",
          "name": "sender",
          "type": "address"
        },
        {
          "indexed": false,
          "internalType": "uint256",
          "name": "tokenId",
          "type": "uint256"
        }
      ],
      "name": "NewEpicNFTMinted",
      "type": "event"
    },
    {
      "anonymous": false,
      "inputs": [
        {
          "indexed": true,
          "internalType": "address",
          "name": "from",
          "type": "address"
        },
        {
          "indexed": true,
          "internalType": "address",
          "name": "to",
          "type": "address"
        },
        {
          "indexed": true,
          "internalType": "uint256",
          "name": "tokenId",
          "type": "uint256"
        }
      ],
      "name": "Transfer",
      "type": "event"
    },
    {
      "inputs": [
        {
          "internalType": "address",
          "name": "to",
          "type": "address"
        },
        {
          "internalType": "uint256",
          "name": "tokenId",
          "type": "uint256"
        }
      ],
      "name": "approve",
      "outputs": [],
      "stateMutability": "nonpayable",
      "type": "function"
    },
    {
      "inputs": [
        {
          "internalType": "address",
          "name": "owner",
          "type": "address"
        }
      ],
      "name": "balanceOf",
      "outputs": [
        {
          "internalType": "uint256",
          "name": "",
          "type": "uint256"
        }
      ],
      "stateMutability": "view",
      "type": "function"
    },
    {
      "inputs": [
        {
          "internalType": "uint256",
          "name": "tokenId",
          "type": "uint256"
        }
      ],
      "name": "getApproved",
      "outputs": [
        {
          "internalType": "address",
          "name": "",
          "type": "address"
        }
      ],
      "stateMutability": "view",
      "type": "function"
    },
    {
      "inputs": [],
      "name": "getTotalNFTsMintedSoFar",
      "outputs": [
        {
          "internalType": "uint256",
          "name": "",
          "type": "uint256"
        }
      ],
      "stateMutability": "view",
      "type": "function"
    },
    {
      "inputs": [
        {
          "internalType": "address",
          "name": "owner",
          "type": "address"
        },
        {
          "internalType": "address",
          "name": "operator",
          "type": "address"
        }
      ],
      "name": "isApprovedForAll",
      "outputs": [
        {
          "internalType": "bool",
          "name": "",
          "type": "bool"
        }
      ],
      "stateMutability": "view",
      "type": "function"
    },
    {
      "inputs": [
        {
          "internalType": "string",
          "name": "nameOfPerson",
          "type": "string"
        }
      ],
      "name": "makeAnEpicNFT",
      "outputs": [],
      "stateMutability": "nonpayable",
      "type": "function"
    },
    {
      "inputs": [],
      "name": "name",
      "outputs": [
        {
          "internalType": "string",
          "name": "",
          "type": "string"
        }
      ],
      "stateMutability": "view",
      "type": "function"
    },
    {
      "inputs": [
        {
          "internalType": "uint256",
          "name": "tokenId",
          "type": "uint256"
        }
      ],
      "name": "ownerOf",
      "outputs": [
        {
          "internalType": "address",
          "name": "",
          "type": "address"
        }
      ],
      "stateMutability": "view",
      "type": "function"
    },
    {
      "inputs": [
        {
          "internalType": "uint256",
          "name": "tokenId",
          "type": "uint256"
        }
      ],
      "name": "pickRandomAwesomeWord",
      "outputs": [
        {
          "internalType": "string",
          "name": "",
          "type": "string"
        }
      ],
      "stateMutability": "view",
      "type": "function"
    },
    {
      "inputs": [
        {
          "internalType": "uint256",
          "name": "tokenId",
          "type": "uint256"
        }
      ],
      "name": "pickRandomColor",
      "outputs": [
        {
          "internalType": "string",
          "name": "",
          "type": "string"
        }
      ],
      "stateMutability": "view",
      "type": "function"
    },
    {
      "inputs": [
        {
          "internalType": "address",
          "name": "from",
          "type": "address"
        },
        {
          "internalType": "address",
          "name": "to",
          "type": "address"
        },
        {
          "internalType": "uint256",
          "name": "tokenId",
          "type": "uint256"
        }
      ],
      "name": "safeTransferFrom",
      "outputs": [],
      "stateMutability": "nonpayable",
      "type": "function"
    },
    {
      "inputs": [
        {
          "internalType": "address",
          "name": "from",
          "type": "address"
        },
        {
          "internalType": "address",
          "name": "to",
          "type": "address"
        },
        {
          "internalType": "uint256",
          "name": "tokenId",
          "type": "uint256"
        },
        {
          "internalType": "bytes",
          "name": "_data",
          "type": "bytes"
        }
      ],
      "name": "safeTransferFrom",
      "outputs": [],
      "stateMutability": "nonpayable",
      "type": "function"
    },
    {
      "inputs": [
        {
          "internalType": "address",
          "name": "operator",
          "type": "address"
        },
        {
          "internalType": "bool",
          "name": "approved",
          "type": "bool"
        }
      ],
      "name": "setApprovalForAll",
      "outputs": [],
      "stateMutability": "nonpayable",
      "type": "function"
    },
    {
      "inputs": [
        {
          "internalType": "bytes4",
          "name": "interfaceId",
          "type": "bytes4"
        }
      ],
      "name": "supportsInterface",
      "outputs": [
        {
          "internalType": "bool",
          "name": "",
          "type": "bool"
        }
      ],
      "stateMutability": "view",
      "type": "function"
    },
    {
      "inputs": [],
      "name": "symbol",
      "outputs": [
        {
          "internalType": "string",
          "name": "",
          "type": "string"
        }
      ],
      "stateMutability": "view",
      "type": "function"
    },
    {
      "inputs": [
        {
          "internalType": "uint256",
          "name": "tokenId",
          "type": "uint256"
        }
      ],
      "name": "tokenURI",
      "outputs": [
        {
          "internalType": "string",
          "name": "",
          "type": "string"
        }
      ],
      "stateMutability": "view",
      "type": "function"
    },
    {
      "inputs": [
        {
          "internalType": "address",
          "name": "from",
          "type": "address"
        },
        {
          "internalType": "address",
          "name": "to",
          "type": "address"
        },
        {
          "internalType": "uint256",
          "name": "tokenId",
          "type": "uint256"
        }
      ],
      "name": "transferFrom",
      "outputs": [],
      "stateMutability": "nonpayable",
      "type": "function"
    }
  ],
  "bytecode": "0x608060405260405180610100016040528060d38152602001620045ca60d39139600890805190602001906200003692919062000934565b506040518060800160405280605681526020016200469d60569139600990805190602001906200006892919062000934565b506040518060c001604052806040518060400160405280600581526020017f4d6572697400000000000000000000000000000000000000000000000000000081525081526020016040518060400160405280600a81526020017f4172746963756c6174650000000000000000000000000000000000000000000081525081526020016040518060400160405280600781526020017f4d6561737572650000000000000000000000000000000000000000000000000081525081526020016040518060400160405280600981526020017f416c756d696e69756d000000000000000000000000000000000000000000000081525081526020016040518060400160405280600b81526020017f436f6e76656e69656e636500000000000000000000000000000000000000000081525081526020016040518060400160405280600981526020017f436f6d6d69747465650000000000000000000000000000000000000000000000815250815250600a906006620001e6929190620009c5565b506040518060c001604052806040518060400160405280600781526020017f4576656e696e670000000000000000000000000000000000000000000000000081525081526020016040518060400160405280600481526020017f486169720000000000000000000000000000000000000000000000000000000081525081526020016040518060400160405280600881526020017f5369636b6e65737300000000000000000000000000000000000000000000000081525081526020016040518060400160405280600681526020017f537469636b79000000000000000000000000000000000000000000000000000081525081526020016040518060400160405280600a81526020017f50726f647563746976650000000000000000000000000000000000000000000081525081526020016040518060400160405280600481526020017f43616c6c00000000000000000000000000000000000000000000000000000000815250815250600b90600662000364929190620009c5565b506040518060c001604052806040518060400160405280600881526020017f4578706c6963697400000000000000000000000000000000000000000000000081525081526020016040518060400160405280600781526020017f4f7574736964650000000000000000000000000000000000000000000000000081525081526020016040518060400160405280600a81526020017f44696374696f6e6172790000000000000000000000000000000000000000000081525081526020016040518060400160405280600381526020017f4b6579000000000000000000000000000000000000000000000000000000000081525081526020016040518060400160405280600781526020017f50726576656e740000000000000000000000000000000000000000000000000081525081526020016040518060400160405280600b81526020017f436f6d666f727461626c65000000000000000000000000000000000000000000815250815250600c906006620004e2929190620009c5565b5060405180608001604052806040518060400160405280600781526020017f617765736f6d650000000000000000000000000000000000000000000000000081525081526020016040518060400160405280600881526020017f746865206265737400000000000000000000000000000000000000000000000081525081526020016040518060400160405280600681526020017f626164617373000000000000000000000000000000000000000000000000000081525081526020016040518060400160405280600581526020017f6772656174000000000000000000000000000000000000000000000000000000815250815250600d906004620005ea92919062000a2c565b506040518060c001604052806040518060400160405280600781526020017f233038433241380000000000000000000000000000000000000000000000000081525081526020016040518060400160405280600581526020017f626c61636b00000000000000000000000000000000000000000000000000000081525081526020016040518060400160405280600481526020017f626c75650000000000000000000000000000000000000000000000000000000081525081526020016040518060400160405280600581526020017f677265656e00000000000000000000000000000000000000000000000000000081525081526020016040518060400160405280600781526020017f236535343332380000000000000000000000000000000000000000000000000081525081526020016040518060400160405280600781526020017f2331373461613000000000000000000000000000000000000000000000000000815250815250600e90600662000768929190620009c5565b503480156200077657600080fd5b506040518060400160405280600781526020017f417765736f6d65000000000000000000000000000000000000000000000000008152506040518060400160405280600481526020017f4157534d000000000000000000000000000000000000000000000000000000008152508160009080519060200190620007fb92919062000934565b5080600190805190602001906200081492919062000934565b505050620008626040518060400160405280602081526020017f5468697320697320616e20617765736f6d65204e465420636f6e7472616374218152506200086860201b6200119f1760201c565b62000c4d565b62000908816040516024016200087f919062000b61565b6040516020818303038152906040527f41304fac000000000000000000000000000000000000000000000000000000007bffffffffffffffffffffffffffffffffffffffffffffffffffffffff19166020820180517bffffffffffffffffffffffffffffffffffffffffffffffffffffffff83818316178352505050506200090b60201b60201c565b50565b60008151905060006a636f6e736f6c652e6c6f679050602083016000808483855afa5050505050565b828054620009429062000bd7565b90600052602060002090601f016020900481019282620009665760008555620009b2565b82601f106200098157805160ff1916838001178555620009b2565b82800160010185558215620009b2579182015b82811115620009b157825182559160200191906001019062000994565b5b509050620009c1919062000a93565b5090565b82805482825590600052602060002090810192821562000a19579160200282015b8281111562000a1857825182908051906020019062000a0792919062000934565b5091602001919060010190620009e6565b5b50905062000a28919062000ab2565b5090565b82805482825590600052602060002090810192821562000a80579160200282015b8281111562000a7f57825182908051906020019062000a6e92919062000934565b509160200191906001019062000a4d565b5b50905062000a8f919062000ab2565b5090565b5b8082111562000aae57600081600090555060010162000a94565b5090565b5b8082111562000ad6576000818162000acc919062000ada565b5060010162000ab3565b5090565b50805462000ae89062000bd7565b6000825580601f1062000afc575062000b1d565b601f01602090049060005260206000209081019062000b1c919062000a93565b5b50565b600062000b2d8262000b85565b62000b39818562000b90565b935062000b4b81856020860162000ba1565b62000b568162000c3c565b840191505092915050565b6000602082019050818103600083015262000b7d818462000b20565b905092915050565b600081519050919050565b600082825260208201905092915050565b60005b8381101562000bc157808201518184015260208101905062000ba4565b8381111562000bd1576000848401525b50505050565b6000600282049050600182168062000bf057607f821691505b6020821081141562000c075762000c0662000c0d565b5b50919050565b7f4e487b7100000000000000000000000000000000000000000000000000000000600052602260045260246000fd5b6000601f19601f8301169050919050565b61396d8062000c5d6000396000f3fe608060405234801561001057600080fd5b506004361061010b5760003560e01c8063514dc8c6116100a2578063a22cb46511610071578063a22cb465146102ca578063b88d4fde146102e6578063c87b56dd14610302578063d57435ff14610332578063e985e9c5146103625761010b565b8063514dc8c61461021c5780636352211e1461024c57806370a082311461027c57806395d89b41146102ac5761010b565b8063095ea7b3116100de578063095ea7b3146101ac57806323b872dd146101c857806339fa8daf146101e457806342842e0e146102005761010b565b806301ffc9a714610110578063060475901461014057806306fdde031461015e578063081812fc1461017c575b600080fd5b61012a6004803603810190610125919061249a565b610392565b6040516101379190613173565b60405180910390f35b610148610474565b604051610155919061342e565b60405180910390f35b610166610485565b604051610173919061318e565b60405180910390f35b6101966004803603810190610191919061252d565b610517565b6040516101a391906130e3565b60405180910390f35b6101c660048036038101906101c1919061245e565b61059c565b005b6101e260048036038101906101dd9190612358565b6106b4565b005b6101fe60048036038101906101f991906124ec565b610714565b005b61021a60048036038101906102159190612358565b61097e565b005b6102366004803603810190610231919061252d565b61099e565b604051610243919061318e565b60405180910390f35b6102666004803603810190610261919061252d565b610abc565b60405161027391906130e3565b60405180910390f35b610296600480360381019061029191906122f3565b610b6e565b6040516102a3919061342e565b60405180910390f35b6102b4610c26565b6040516102c1919061318e565b60405180910390f35b6102e460048036038101906102df9190612422565b610cb8565b005b61030060048036038101906102fb91906123a7565b610e39565b005b61031c6004803603810190610317919061252d565b610e9b565b604051610329919061318e565b60405180910390f35b61034c6004803603810190610347919061252d565b610fed565b604051610359919061318e565b60405180910390f35b61037c6004803603810190610377919061231c565b61110b565b6040516103899190613173565b60405180910390f35b60007f80ac58cd000000000000000000000000000000000000000000000000000000007bffffffffffffffffffffffffffffffffffffffffffffffffffffffff1916827bffffffffffffffffffffffffffffffffffffffffffffffffffffffff1916148061045d57507f5b5e139f000000000000000000000000000000000000000000000000000000007bffffffffffffffffffffffffffffffffffffffffffffffffffffffff1916827bffffffffffffffffffffffffffffffffffffffffffffffffffffffff1916145b8061046d575061046c82611238565b5b9050919050565b600061048060076112a2565b905090565b606060008054610494906136fd565b80601f01602080910402602001604051908101604052809291908181526020018280546104c0906136fd565b801561050d5780601f106104e25761010080835404028352916020019161050d565b820191906000526020600020905b8154815290600101906020018083116104f057829003601f168201915b5050505050905090565b6000610522826112b0565b610561576040517f08c379a00000000000000000000000000000000000000000000000000000000081526004016105589061338e565b60405180910390fd5b6004600083815260200190815260200160002060009054906101000a900473ffffffffffffffffffffffffffffffffffffffff169050919050565b60006105a782610abc565b90508073ffffffffffffffffffffffffffffffffffffffff168373ffffffffffffffffffffffffffffffffffffffff161415610618576040517f08c379a000000000000000000000000000000000000000000000000000000000815260040161060f906133ee565b60405180910390fd5b8073ffffffffffffffffffffffffffffffffffffffff1661063761131c565b73ffffffffffffffffffffffffffffffffffffffff16148061066657506106658161066061131c565b61110b565b5b6106a5576040517f08c379a000000000000000000000000000000000000000000000000000000000815260040161069c906132ae565b60405180910390fd5b6106af8383611324565b505050565b6106c56106bf61131c565b826113dd565b610704576040517f08c379a00000000000000000000000000000000000000000000000000000000081526004016106fb9061340e565b60405180910390fd5b61070f8383836114bb565b505050565b600061072060076112a2565b905060008290506032821061076a576040517f08c379a00000000000000000000000000000000000000000000000000000000081526004016107619061332e565b60405180910390fd5b60008151116107ae576040517f08c379a00000000000000000000000000000000000000000000000000000000081526004016107a59061328e565b60405180910390fd5b60006107b983610fed565b9050600084826040516020016107d0929190612fc0565b604051602081830303815290604052905060006107ec8561099e565b905060006008826009856040516020016108099493929190612fef565b6040516020818303038152906040529050600061084e8461082984611717565b60405160200161083a92919061305a565b604051602081830303815290604052611717565b9050600081604051602001610863919061309f565b60405160208183030381529060405290506108b26040518060400160405280601581526020017f0a2d2d2d2d2d2d2d2d2d2d2d2d2d2d2d2d2d2d2d2d000000000000000000000081525061119f565b6108bb8161119f565b6108f96040518060400160405280601581526020017f2d2d2d2d2d2d2d2d2d2d2d2d2d2d2d2d2d2d2d2d0a000000000000000000000081525061119f565b61090333896118d5565b61090d88826118f3565b6109176007611967565b61093a6040518060600160405280602581526020016138d360259139893361197d565b7febb98688741ffa4c7589bf325de30cf7becb63de567842e1ccdb6cb949fdc82c338960405161096b92919061314a565b60405180910390a1505050505050505050565b61099983838360405180602001604052806000815250610e39565b505050565b606060006109d26109ae84611a1c565b6040516020016109be91906130c1565b604051602081830303815290604052611bc9565b9050600e80549050816109e59190613778565b9050600e8181548110610a21577f4e487b7100000000000000000000000000000000000000000000000000000000600052603260045260246000fd5b906000526020600020018054610a36906136fd565b80601f0160208091040260200160405190810160405280929190818152602001828054610a62906136fd565b8015610aaf5780601f10610a8457610100808354040283529160200191610aaf565b820191906000526020600020905b815481529060010190602001808311610a9257829003601f168201915b5050505050915050919050565b6000806002600084815260200190815260200160002060009054906101000a900473ffffffffffffffffffffffffffffffffffffffff169050600073ffffffffffffffffffffffffffffffffffffffff168173ffffffffffffffffffffffffffffffffffffffff161415610b65576040517f08c379a0000000000000000000000000000000000000000000000000000000008152600401610b5c906132ee565b60405180910390fd5b80915050919050565b60008073ffffffffffffffffffffffffffffffffffffffff168273ffffffffffffffffffffffffffffffffffffffff161415610bdf576040517f08c379a0000000000000000000000000000000000000000000000000000000008152600401610bd6906132ce565b60405180910390fd5b600360008373ffffffffffffffffffffffffffffffffffffffff1673ffffffffffffffffffffffffffffffffffffffff168152602001908152602001600020549050919050565b606060018054610c35906136fd565b80601f0160208091040260200160405190810160405280929190818152602001828054610c61906136fd565b8015610cae5780601f10610c8357610100808354040283529160200191610cae565b820191906000526020600020905b815481529060010190602001808311610c9157829003601f168201915b5050505050905090565b610cc061131c565b73ffffffffffffffffffffffffffffffffffffffff168273ffffffffffffffffffffffffffffffffffffffff161415610d2e576040517f08c379a0000000000000000000000000000000000000000000000000000000008152600401610d259061324e565b60405180910390fd5b8060056000610d3b61131c565b73ffffffffffffffffffffffffffffffffffffffff1673ffffffffffffffffffffffffffffffffffffffff16815260200190815260200160002060008473ffffffffffffffffffffffffffffffffffffffff1673ffffffffffffffffffffffffffffffffffffffff16815260200190815260200160002060006101000a81548160ff0219169083151502179055508173ffffffffffffffffffffffffffffffffffffffff16610de861131c565b73ffffffffffffffffffffffffffffffffffffffff167f17307eab39ab6107e8899845ad3d59bd9653f200f220920489ca2b5937696c3183604051610e2d9190613173565b60405180910390a35050565b610e4a610e4461131c565b836113dd565b610e89576040517f08c379a0000000000000000000000000000000000000000000000000000000008152600401610e809061340e565b60405180910390fd5b610e9584848484611bfc565b50505050565b6060610ea6826112b0565b610ee5576040517f08c379a0000000000000000000000000000000000000000000000000000000008152600401610edc9061336e565b60405180910390fd5b6000600660008481526020019081526020016000208054610f05906136fd565b80601f0160208091040260200160405190810160405280929190818152602001828054610f31906136fd565b8015610f7e5780601f10610f5357610100808354040283529160200191610f7e565b820191906000526020600020905b815481529060010190602001808311610f6157829003601f168201915b505050505090506000610f8f611c58565b9050600081511415610fa5578192505050610fe8565b600082511115610fda578082604051602001610fc2929190612f9c565b60405160208183030381529060405292505050610fe8565b610fe384611c6f565b925050505b919050565b60606000611021610ffd84611a1c565b60405160200161100d9190613038565b604051602081830303815290604052611bc9565b9050600d80549050816110349190613778565b9050600d8181548110611070577f4e487b7100000000000000000000000000000000000000000000000000000000600052603260045260246000fd5b906000526020600020018054611085906136fd565b80601f01602080910402602001604051908101604052809291908181526020018280546110b1906136fd565b80156110fe5780601f106110d3576101008083540402835291602001916110fe565b820191906000526020600020905b8154815290600101906020018083116110e157829003601f168201915b5050505050915050919050565b6000600560008473ffffffffffffffffffffffffffffffffffffffff1673ffffffffffffffffffffffffffffffffffffffff16815260200190815260200160002060008373ffffffffffffffffffffffffffffffffffffffff1673ffffffffffffffffffffffffffffffffffffffff16815260200190815260200160002060009054906101000a900460ff16905092915050565b611235816040516024016111b3919061318e565b6040516020818303038152906040527f41304fac000000000000000000000000000000000000000000000000000000007bffffffffffffffffffffffffffffffffffffffffffffffffffffffff19166020820180517bffffffffffffffffffffffffffffffffffffffffffffffffffffffff8381831617835250505050611d16565b50565b60007f01ffc9a7000000000000000000000000000000000000000000000000000000007bffffffffffffffffffffffffffffffffffffffffffffffffffffffff1916827bffffffffffffffffffffffffffffffffffffffffffffffffffffffff1916149050919050565b600081600001549050919050565b60008073ffffffffffffffffffffffffffffffffffffffff166002600084815260200190815260200160002060009054906101000a900473ffffffffffffffffffffffffffffffffffffffff1673ffffffffffffffffffffffffffffffffffffffff1614159050919050565b600033905090565b816004600083815260200190815260200160002060006101000a81548173ffffffffffffffffffffffffffffffffffffffff021916908373ffffffffffffffffffffffffffffffffffffffff160217905550808273ffffffffffffffffffffffffffffffffffffffff1661139783610abc565b73ffffffffffffffffffffffffffffffffffffffff167f8c5be1e5ebec7d5bd14f71427d1e84f3dd0314c0f7b2291e5b200ac8c7c3b92560405160405180910390a45050565b60006113e8826112b0565b611427576040517f08c379a000000000000000000000000000000000000000000000000000000000815260040161141e9061326e565b60405180910390fd5b600061143283610abc565b90508073ffffffffffffffffffffffffffffffffffffffff168473ffffffffffffffffffffffffffffffffffffffff1614806114a157508373ffffffffffffffffffffffffffffffffffffffff1661148984610517565b73ffffffffffffffffffffffffffffffffffffffff16145b806114b257506114b1818561110b565b5b91505092915050565b8273ffffffffffffffffffffffffffffffffffffffff166114db82610abc565b73ffffffffffffffffffffffffffffffffffffffff1614611531576040517f08c379a0000000000000000000000000000000000000000000000000000000008152600401611528906133ae565b60405180910390fd5b600073ffffffffffffffffffffffffffffffffffffffff168273ffffffffffffffffffffffffffffffffffffffff1614156115a1576040517f08c379a00000000000000000000000000000000000000000000000000000000081526004016115989061322e565b60405180910390fd5b6115ac838383611d3f565b6115b7600082611324565b6001600360008573ffffffffffffffffffffffffffffffffffffffff1673ffffffffffffffffffffffffffffffffffffffff16815260200190815260200160002060008282546116079190613613565b925050819055506001600360008473ffffffffffffffffffffffffffffffffffffffff1673ffffffffffffffffffffffffffffffffffffffff168152602001908152602001600020600082825461165e9190613532565b92505081905550816002600083815260200190815260200160002060006101000a81548173ffffffffffffffffffffffffffffffffffffffff021916908373ffffffffffffffffffffffffffffffffffffffff160217905550808273ffffffffffffffffffffffffffffffffffffffff168473ffffffffffffffffffffffffffffffffffffffff167fddf252ad1be2c89b69c2b068fc378daa952ba7f163c4a11628f55a4df523b3ef60405160405180910390a4505050565b6060600082519050600081141561174057604051806020016040528060008152509150506118d0565b600060036002836117519190613532565b61175b9190613588565b600461176791906135b9565b905060006020826117789190613532565b67ffffffffffffffff8111156117b7577f4e487b7100000000000000000000000000000000000000000000000000000000600052604160045260246000fd5b6040519080825280601f01601f1916602001820160405280156117e95781602001600182028036833780820191505090505b50905060006040518060600160405280604081526020016138f8604091399050600181016020830160005b8681101561188d5760038101905062ffffff818a015116603f8160121c168401518060081b905060ff603f83600c1c1686015116810190508060081b905060ff603f8360061c1686015116810190508060081b905060ff603f831686015116810190508060e01b90508084526004840193505050611814565b5060038606600181146118a757600281146118b7576118c2565b613d3d60f01b60028303526118c2565b603d60f81b60018303525b508484525050819450505050505b919050565b6118ef828260405180602001604052806000815250611d44565b5050565b6118fc826112b0565b61193b576040517f08c379a00000000000000000000000000000000000000000000000000000000081526004016119329061330e565b60405180910390fd5b80600660008481526020019081526020016000209080519060200190611962929190612117565b505050565b6001816000016000828254019250508190555050565b611a17838383604051602401611995939291906131b0565b6040516020818303038152906040527fe3849f79000000000000000000000000000000000000000000000000000000007bffffffffffffffffffffffffffffffffffffffffffffffffffffffff19166020820180517bffffffffffffffffffffffffffffffffffffffffffffffffffffffff8381831617835250505050611d16565b505050565b60606000821415611a64576040518060400160405280600181526020017f30000000000000000000000000000000000000000000000000000000000000008152509050611bc4565b600082905060005b60008214611a96578080611a7f9061372f565b915050600a82611a8f9190613588565b9150611a6c565b60008167ffffffffffffffff811115611ad8577f4e487b7100000000000000000000000000000000000000000000000000000000600052604160045260246000fd5b6040519080825280601f01601f191660200182016040528015611b0a5781602001600182028036833780820191505090505b5090505b60008514611bbd57600182611b239190613613565b9150600a85611b329190613778565b6030611b3e9190613532565b60f81b818381518110611b7a577f4e487b7100000000000000000000000000000000000000000000000000000000600052603260045260246000fd5b60200101907effffffffffffffffffffffffffffffffffffffffffffffffffffffffffffff1916908160001a905350600a85611bb69190613588565b9450611b0e565b8093505050505b919050565b600081604051602001611bdc9190612f85565b6040516020818303038152906040528051906020012060001c9050919050565b611c078484846114bb565b611c1384848484611d9f565b611c52576040517f08c379a0000000000000000000000000000000000000000000000000000000008152600401611c49906131ee565b60405180910390fd5b50505050565b606060405180602001604052806000815250905090565b6060611c7a826112b0565b611cb9576040517f08c379a0000000000000000000000000000000000000000000000000000000008152600401611cb0906133ce565b60405180910390fd5b6000611cc3611c58565b90506000815111611ce35760405180602001604052806000815250611d0e565b80611ced84611a1c565b604051602001611cfe929190612f9c565b6040516020818303038152906040525b915050919050565b60008151905060006a636f6e736f6c652e6c6f679050602083016000808483855afa5050505050565b505050565b611d4e8383611f36565b611d5b6000848484611d9f565b611d9a576040517f08c379a0000000000000000000000000000000000000000000000000000000008152600401611d91906131ee565b60405180910390fd5b505050565b6000611dc08473ffffffffffffffffffffffffffffffffffffffff16612104565b15611f29578373ffffffffffffffffffffffffffffffffffffffff1663150b7a02611de961131c565b8786866040518563ffffffff1660e01b8152600401611e0b94939291906130fe565b602060405180830381600087803b158015611e2557600080fd5b505af1925050508015611e5657506040513d601f19601f82011682018060405250810190611e5391906124c3565b60015b611ed9573d8060008114611e86576040519150601f19603f3d011682016040523d82523d6000602084013e611e8b565b606091505b50600081511415611ed1576040517f08c379a0000000000000000000000000000000000000000000000000000000008152600401611ec8906131ee565b60405180910390fd5b805181602001fd5b63150b7a0260e01b7bffffffffffffffffffffffffffffffffffffffffffffffffffffffff1916817bffffffffffffffffffffffffffffffffffffffffffffffffffffffff191614915050611f2e565b600190505b949350505050565b600073ffffffffffffffffffffffffffffffffffffffff168273ffffffffffffffffffffffffffffffffffffffff161415611fa6576040517f08c379a0000000000000000000000000000000000000000000000000000000008152600401611f9d9061334e565b60405180910390fd5b611faf816112b0565b15611fef576040517f08c379a0000000000000000000000000000000000000000000000000000000008152600401611fe69061320e565b60405180910390fd5b611ffb60008383611d3f565b6001600360008473ffffffffffffffffffffffffffffffffffffffff1673ffffffffffffffffffffffffffffffffffffffff168152602001908152602001600020600082825461204b9190613532565b92505081905550816002600083815260200190815260200160002060006101000a81548173ffffffffffffffffffffffffffffffffffffffff021916908373ffffffffffffffffffffffffffffffffffffffff160217905550808273ffffffffffffffffffffffffffffffffffffffff16600073ffffffffffffffffffffffffffffffffffffffff167fddf252ad1be2c89b69c2b068fc378daa952ba7f163c4a11628f55a4df523b3ef60405160405180910390a45050565b600080823b905060008111915050919050565b828054612123906136fd565b90600052602060002090601f016020900481019282612145576000855561218c565b82601f1061215e57805160ff191683800117855561218c565b8280016001018555821561218c579182015b8281111561218b578251825591602001919060010190612170565b5b509050612199919061219d565b5090565b5b808211156121b657600081600090555060010161219e565b5090565b60006121cd6121c88461347a565b613449565b9050828152602081018484840111156121e557600080fd5b6121f08482856136bb565b509392505050565b600061220b612206846134aa565b613449565b90508281526020810184848401111561222357600080fd5b61222e8482856136bb565b509392505050565b60008135905061224581613876565b92915050565b60008135905061225a8161388d565b92915050565b60008135905061226f816138a4565b92915050565b600081519050612284816138a4565b92915050565b600082601f83011261229b57600080fd5b81356122ab8482602086016121ba565b91505092915050565b600082601f8301126122c557600080fd5b81356122d58482602086016121f8565b91505092915050565b6000813590506122ed816138bb565b92915050565b60006020828403121561230557600080fd5b600061231384828501612236565b91505092915050565b6000806040838503121561232f57600080fd5b600061233d85828601612236565b925050602061234e85828601612236565b9150509250929050565b60008060006060848603121561236d57600080fd5b600061237b86828701612236565b935050602061238c86828701612236565b925050604061239d868287016122de565b9150509250925092565b600080600080608085870312156123bd57600080fd5b60006123cb87828801612236565b94505060206123dc87828801612236565b93505060406123ed878288016122de565b925050606085013567ffffffffffffffff81111561240a57600080fd5b6124168782880161228a565b91505092959194509250565b6000806040838503121561243557600080fd5b600061244385828601612236565b92505060206124548582860161224b565b9150509250929050565b6000806040838503121561247157600080fd5b600061247f85828601612236565b9250506020612490858286016122de565b9150509250929050565b6000602082840312156124ac57600080fd5b60006124ba84828501612260565b91505092915050565b6000602082840312156124d557600080fd5b60006124e384828501612275565b91505092915050565b6000602082840312156124fe57600080fd5b600082013567ffffffffffffffff81111561251857600080fd5b612524848285016122b4565b91505092915050565b60006020828403121561253f57600080fd5b600061254d848285016122de565b91505092915050565b61255f81613647565b82525050565b61256e81613659565b82525050565b600061257f826134ef565b6125898185613505565b93506125998185602086016136ca565b6125a281613865565b840191505092915050565b60006125b8826134fa565b6125c28185613516565b93506125d28185602086016136ca565b6125db81613865565b840191505092915050565b60006125f1826134fa565b6125fb8185613527565b935061260b8185602086016136ca565b80840191505092915050565b60008154612624816136fd565b61262e8186613527565b94506001821660008114612649576001811461265a5761268d565b60ff1983168652818601935061268d565b612663856134da565b60005b8381101561268557815481890152600182019150602081019050612666565b838801955050505b50505092915050565b60006126a3603283613516565b91507f4552433732313a207472616e7366657220746f206e6f6e20455243373231526560008301527f63656976657220696d706c656d656e74657200000000000000000000000000006020830152604082019050919050565b6000612709601c83613516565b91507f4552433732313a20746f6b656e20616c7265616479206d696e746564000000006000830152602082019050919050565b6000612749600a83613527565b91507f54484952445f574f5244000000000000000000000000000000000000000000006000830152600a82019050919050565b6000612789602483613516565b91507f4552433732313a207472616e7366657220746f20746865207a65726f2061646460008301527f72657373000000000000000000000000000000000000000000000000000000006020830152604082019050919050565b60006127ef601983613516565b91507f4552433732313a20617070726f766520746f2063616c6c6572000000000000006000830152602082019050919050565b600061282f606383613527565b91507f222c20226465736372697074696f6e223a20224120686967686c79206163636c60008301527f61696d656420636f6c6c656374696f6e206f6620737175617265732e222c202260208301527f696d616765223a2022646174613a696d6167652f7376672b786d6c3b6261736560408301527f36342c00000000000000000000000000000000000000000000000000000000006060830152606382019050919050565b60006128e1602c83613516565b91507f4552433732313a206f70657261746f7220717565727920666f72206e6f6e657860008301527f697374656e7420746f6b656e00000000000000000000000000000000000000006020830152604082019050919050565b6000612947601383613516565b91507f506c6561736520656e7465722061206e616d65000000000000000000000000006000830152602082019050919050565b6000612987600d83613527565b91507f3c2f746578743e3c2f7376673e000000000000000000000000000000000000006000830152600d82019050919050565b60006129c7603883613516565b91507f4552433732313a20617070726f76652063616c6c6572206973206e6f74206f7760008301527f6e6572206e6f7220617070726f76656420666f7220616c6c00000000000000006020830152604082019050919050565b6000612a2d602a83613516565b91507f4552433732313a2062616c616e636520717565727920666f7220746865207a6560008301527f726f2061646472657373000000000000000000000000000000000000000000006020830152604082019050919050565b6000612a93602983613516565b91507f4552433732313a206f776e657220717565727920666f72206e6f6e657869737460008301527f656e7420746f6b656e00000000000000000000000000000000000000000000006020830152604082019050919050565b6000612af9602e83613516565b91507f45524337323155524953746f726167653a2055524920736574206f66206e6f6e60008301527f6578697374656e7420746f6b656e0000000000000000000000000000000000006020830152604082019050919050565b6000612b5f600283613527565b91507f227d0000000000000000000000000000000000000000000000000000000000006000830152600282019050919050565b6000612b9f601d83613516565b91507f4d6178696d756d20616d6f756e74206f66204e465473206d696e7465640000006000830152602082019050919050565b6000612bdf602083613516565b91507f4552433732313a206d696e7420746f20746865207a65726f20616464726573736000830152602082019050919050565b6000612c1f603183613516565b91507f45524337323155524953746f726167653a2055524920717565727920666f722060008301527f6e6f6e6578697374656e7420746f6b656e0000000000000000000000000000006020830152604082019050919050565b6000612c85602c83613516565b91507f4552433732313a20617070726f76656420717565727920666f72206e6f6e657860008301527f697374656e7420746f6b656e00000000000000000000000000000000000000006020830152604082019050919050565b6000612ceb602983613516565b91507f4552433732313a207472616e73666572206f6620746f6b656e2074686174206960008301527f73206e6f74206f776e00000000000000000000000000000000000000000000006020830152604082019050919050565b6000612d51602f83613516565b91507f4552433732314d657461646174613a2055524920717565727920666f72206e6f60008301527f6e6578697374656e7420746f6b656e00000000000000000000000000000000006020830152604082019050919050565b6000612db7600a83613527565b91507f7b226e616d65223a2022000000000000000000000000000000000000000000006000830152600a82019050919050565b6000612df7602183613516565b91507f4552433732313a20617070726f76616c20746f2063757272656e74206f776e6560008301527f72000000000000000000000000000000000000000000000000000000000000006020830152604082019050919050565b6000612e5d601d83613527565b91507f646174613a6170706c69636174696f6e2f6a736f6e3b6261736536342c0000006000830152601d82019050919050565b6000612e9d603183613516565b91507f4552433732313a207472616e736665722063616c6c6572206973206e6f74206f60008301527f776e6572206e6f7220617070726f7665640000000000000000000000000000006020830152604082019050919050565b6000612f03600483613527565b91507f20697320000000000000000000000000000000000000000000000000000000006000830152600482019050919050565b6000612f43600583613527565b91507f434f4c4f520000000000000000000000000000000000000000000000000000006000830152600582019050919050565b612f7f816136b1565b82525050565b6000612f9182846125e6565b915081905092915050565b6000612fa882856125e6565b9150612fb482846125e6565b91508190509392505050565b6000612fcc82856125e6565b9150612fd782612ef6565b9150612fe382846125e6565b91508190509392505050565b6000612ffb8287612617565b915061300782866125e6565b91506130138285612617565b915061301f82846125e6565b915061302a8261297a565b915081905095945050505050565b60006130438261273c565b915061304f82846125e6565b915081905092915050565b600061306582612daa565b915061307182856125e6565b915061307c82612822565b915061308882846125e6565b915061309382612b52565b91508190509392505050565b60006130aa82612e50565b91506130b682846125e6565b915081905092915050565b60006130cc82612f36565b91506130d882846125e6565b915081905092915050565b60006020820190506130f86000830184612556565b92915050565b60006080820190506131136000830187612556565b6131206020830186612556565b61312d6040830185612f76565b818103606083015261313f8184612574565b905095945050505050565b600060408201905061315f6000830185612556565b61316c6020830184612f76565b9392505050565b60006020820190506131886000830184612565565b92915050565b600060208201905081810360008301526131a881846125ad565b905092915050565b600060608201905081810360008301526131ca81866125ad565b90506131d96020830185612f76565b6131e66040830184612556565b949350505050565b6000602082019050818103600083015261320781612696565b9050919050565b60006020820190508181036000830152613227816126fc565b9050919050565b600060208201905081810360008301526132478161277c565b9050919050565b60006020820190508181036000830152613267816127e2565b9050919050565b60006020820190508181036000830152613287816128d4565b9050919050565b600060208201905081810360008301526132a78161293a565b9050919050565b600060208201905081810360008301526132c7816129ba565b9050919050565b600060208201905081810360008301526132e781612a20565b9050919050565b6000602082019050818103600083015261330781612a86565b9050919050565b6000602082019050818103600083015261332781612aec565b9050919050565b6000602082019050818103600083015261334781612b92565b9050919050565b6000602082019050818103600083015261336781612bd2565b9050919050565b6000602082019050818103600083015261338781612c12565b9050919050565b600060208201905081810360008301526133a781612c78565b9050919050565b600060208201905081810360008301526133c781612cde565b9050919050565b600060208201905081810360008301526133e781612d44565b9050919050565b6000602082019050818103600083015261340781612dea565b9050919050565b6000602082019050818103600083015261342781612e90565b9050919050565b60006020820190506134436000830184612f76565b92915050565b6000604051905081810181811067ffffffffffffffff821117156134705761346f613836565b5b8060405250919050565b600067ffffffffffffffff82111561349557613494613836565b5b601f19601f8301169050602081019050919050565b600067ffffffffffffffff8211156134c5576134c4613836565b5b601f19601f8301169050602081019050919050565b60008190508160005260206000209050919050565b600081519050919050565b600081519050919050565b600082825260208201905092915050565b600082825260208201905092915050565b600081905092915050565b600061353d826136b1565b9150613548836136b1565b9250827fffffffffffffffffffffffffffffffffffffffffffffffffffffffffffffffff0382111561357d5761357c6137a9565b5b828201905092915050565b6000613593826136b1565b915061359e836136b1565b9250826135ae576135ad6137d8565b5b828204905092915050565b60006135c4826136b1565b91506135cf836136b1565b9250817fffffffffffffffffffffffffffffffffffffffffffffffffffffffffffffffff0483118215151615613608576136076137a9565b5b828202905092915050565b600061361e826136b1565b9150613629836136b1565b92508282101561363c5761363b6137a9565b5b828203905092915050565b600061365282613691565b9050919050565b60008115159050919050565b60007fffffffff0000000000000000000000000000000000000000000000000000000082169050919050565b600073ffffffffffffffffffffffffffffffffffffffff82169050919050565b6000819050919050565b82818337600083830152505050565b60005b838110156136e85780820151818401526020810190506136cd565b838111156136f7576000848401525b50505050565b6000600282049050600182168061371557607f821691505b6020821081141561372957613728613807565b5b50919050565b600061373a826136b1565b91507fffffffffffffffffffffffffffffffffffffffffffffffffffffffffffffffff82141561376d5761376c6137a9565b5b600182019050919050565b6000613783826136b1565b915061378e836136b1565b92508261379e5761379d6137d8565b5b828206905092915050565b7f4e487b7100000000000000000000000000000000000000000000000000000000600052601160045260246000fd5b7f4e487b7100000000000000000000000000000000000000000000000000000000600052601260045260246000fd5b7f4e487b7100000000000000000000000000000000000000000000000000000000600052602260045260246000fd5b7f4e487b7100000000000000000000000000000000000000000000000000000000600052604160045260246000fd5b6000601f19601f8301169050919050565b61387f81613647565b811461388a57600080fd5b50565b61389681613659565b81146138a157600080fd5b50565b6138ad81613665565b81146138b857600080fd5b50565b6138c4816136b1565b81146138cf57600080fd5b5056fe416e204e465420772f20494420257320686173206265656e206d696e74656420746f2025734142434445464748494a4b4c4d4e4f505152535455565758595a6162636465666768696a6b6c6d6e6f707172737475767778797a303132333435363738392b2fa264697066735822122037b238134573508099272473222d74b941915d6832a9179bacd23a362d12498964736f6c634300080000333c73766720786d6c6e733d27687474703a2f2f7777772e77332e6f72672f323030302f73766727207072657365727665417370656374526174696f3d27784d696e594d696e206d656574272076696577426f783d273020302033353020333530273e3c7374796c653e2e62617365207b2066696c6c3a2077686974653b20666f6e742d66616d696c793a2073657269663b20666f6e742d73697a653a20323470783b207d3c2f7374796c653e3c726563742077696474683d273130302527206865696768743d2731303025272066696c6c3d27272f3e3c7465787420783d273530252720793d273530252720636c6173733d27626173652720646f6d696e616e742d626173656c696e653d276d6964646c652720746578742d616e63686f723d276d6964646c65273e",
  "linkReferences": {},
  "deployedLinkReferences": {}
}